{
  "_format": "hh-sol-artifact-1",
  "contractName": "STLPool",
  "sourceName": "contracts/STLPool.sol",
  "abi": [
    {
      "inputs": [
        {
          "internalType": "address",
          "name": "_token",
          "type": "address"
        }
      ],
      "stateMutability": "nonpayable",
      "type": "constructor"
    },
    {
      "inputs": [
        {
          "internalType": "address",
          "name": "target",
          "type": "address"
        }
      ],
      "name": "AddressEmptyCode",
      "type": "error"
    },
    {
      "inputs": [
        {
          "internalType": "address",
          "name": "account",
          "type": "address"
        }
      ],
      "name": "AddressInsufficientBalance",
      "type": "error"
    },
    {
      "inputs": [],
      "name": "FailedInnerCall",
      "type": "error"
    },
    {
      "inputs": [
        {
          "internalType": "address",
          "name": "owner",
          "type": "address"
        }
      ],
      "name": "OwnableInvalidOwner",
      "type": "error"
    },
    {
      "inputs": [
        {
          "internalType": "address",
          "name": "account",
          "type": "address"
        }
      ],
      "name": "OwnableUnauthorizedAccount",
      "type": "error"
    },
    {
      "inputs": [
        {
          "internalType": "address",
          "name": "token",
          "type": "address"
        }
      ],
      "name": "SafeERC20FailedOperation",
      "type": "error"
    },
    {
      "anonymous": false,
      "inputs": [
        {
          "indexed": false,
          "internalType": "address",
          "name": "_sender",
          "type": "address"
        },
        {
          "indexed": false,
          "internalType": "uint256",
          "name": "_amount",
          "type": "uint256"
        }
      ],
      "name": "LogAddLiquidity",
      "type": "event"
    },
    {
      "anonymous": false,
      "inputs": [
        {
          "indexed": false,
          "internalType": "address",
          "name": "_sender",
          "type": "address"
        },
        {
          "indexed": false,
          "internalType": "uint256",
          "name": "_id",
          "type": "uint256"
        },
        {
          "indexed": false,
          "internalType": "uint256",
          "name": "_amount",
          "type": "uint256"
        }
      ],
      "name": "LogAddRewards",
      "type": "event"
    },
    {
      "anonymous": false,
      "inputs": [
        {
          "indexed": false,
          "internalType": "address",
          "name": "_sender",
          "type": "address"
        },
        {
          "indexed": false,
          "internalType": "uint256",
          "name": "_amountToWithdraw",
          "type": "uint256"
        }
      ],
      "name": "LogWithdraw",
      "type": "event"
    },
    {
      "anonymous": false,
      "inputs": [
        {
          "indexed": true,
          "internalType": "address",
          "name": "previousOwner",
          "type": "address"
        },
        {
          "indexed": true,
          "internalType": "address",
          "name": "newOwner",
          "type": "address"
        }
      ],
      "name": "OwnershipTransferred",
      "type": "event"
    },
    {
      "inputs": [
        {
          "internalType": "uint256",
          "name": "_amount",
          "type": "uint256"
        }
      ],
      "name": "addLiquidity",
      "outputs": [],
      "stateMutability": "nonpayable",
      "type": "function"
    },
    {
      "inputs": [
        {
          "internalType": "uint256",
          "name": "_amount",
          "type": "uint256"
        }
      ],
      "name": "addRewards",
      "outputs": [],
      "stateMutability": "nonpayable",
      "type": "function"
    },
    {
      "inputs": [
        {
          "internalType": "address",
          "name": "",
          "type": "address"
        }
      ],
      "name": "deposits",
      "outputs": [
        {
          "internalType": "uint256",
          "name": "amount",
          "type": "uint256"
        },
        {
          "internalType": "uint256",
          "name": "prevRewardsId",
          "type": "uint256"
        },
        {
          "internalType": "bool",
          "name": "status",
          "type": "bool"
        }
      ],
      "stateMutability": "view",
      "type": "function"
    },
    {
      "inputs": [
        {
          "internalType": "uint256",
          "name": "_balance",
          "type": "uint256"
        }
      ],
      "name": "getShares",
      "outputs": [
        {
          "internalType": "uint256",
          "name": "shares",
          "type": "uint256"
        }
      ],
      "stateMutability": "view",
      "type": "function"
    },
    {
      "inputs": [],
      "name": "owner",
      "outputs": [
        {
          "internalType": "address",
          "name": "",
          "type": "address"
        }
      ],
      "stateMutability": "view",
      "type": "function"
    },
    {
      "inputs": [],
      "name": "poolAmount",
      "outputs": [
        {
          "internalType": "uint256",
          "name": "",
          "type": "uint256"
        }
      ],
      "stateMutability": "view",
      "type": "function"
    },
    {
      "inputs": [
        {
          "internalType": "address",
          "name": "_to",
          "type": "address"
        },
        {
          "internalType": "address",
          "name": "_token",
          "type": "address"
        }
      ],
      "name": "recover",
      "outputs": [],
      "stateMutability": "nonpayable",
      "type": "function"
    },
    {
      "inputs": [],
      "name": "renounceOwnership",
      "outputs": [],
      "stateMutability": "nonpayable",
      "type": "function"
    },
    {
      "inputs": [
        {
          "internalType": "uint256",
          "name": "",
          "type": "uint256"
        }
      ],
      "name": "rewards",
      "outputs": [
        {
          "internalType": "uint256",
          "name": "amount",
          "type": "uint256"
        },
        {
          "internalType": "uint256",
          "name": "stakers",
          "type": "uint256"
        },
        {
          "internalType": "uint256",
          "name": "tempPoolAmount",
          "type": "uint256"
        }
      ],
      "stateMutability": "view",
      "type": "function"
    },
    {
      "inputs": [],
      "name": "rewardsCount",
      "outputs": [
        {
          "internalType": "uint256",
          "name": "",
          "type": "uint256"
        }
      ],
      "stateMutability": "view",
      "type": "function"
    },
    {
      "inputs": [],
      "name": "token",
      "outputs": [
        {
          "internalType": "contract IERC20",
          "name": "",
          "type": "address"
        }
      ],
      "stateMutability": "view",
      "type": "function"
    },
    {
      "inputs": [],
      "name": "totalStakers",
      "outputs": [
        {
          "internalType": "uint256",
          "name": "",
          "type": "uint256"
        }
      ],
      "stateMutability": "view",
      "type": "function"
    },
    {
      "inputs": [
        {
          "internalType": "address",
          "name": "newOwner",
          "type": "address"
        }
      ],
      "name": "transferOwnership",
      "outputs": [],
      "stateMutability": "nonpayable",
      "type": "function"
    },
    {
      "inputs": [],
      "name": "withdraw",
      "outputs": [],
      "stateMutability": "nonpayable",
      "type": "function"
    }
  ],
  "bytecode": "0x60a06040523480156200001157600080fd5b5060405162001e1b38038062001e1b83398181016040528101906200003791906200029a565b33600073ffffffffffffffffffffffffffffffffffffffff168173ffffffffffffffffffffffffffffffffffffffff1603620000ad5760006040517f1e4fbdf7000000000000000000000000000000000000000000000000000000008152600401620000a49190620002dd565b60405180910390fd5b620000be816200016c60201b60201c565b50600073ffffffffffffffffffffffffffffffffffffffff168173ffffffffffffffffffffffffffffffffffffffff160362000131576040517f08c379a000000000000000000000000000000000000000000000000000000000815260040162000128906200035b565b60405180910390fd5b8073ffffffffffffffffffffffffffffffffffffffff1660808173ffffffffffffffffffffffffffffffffffffffff1681525050506200037d565b60008060009054906101000a900473ffffffffffffffffffffffffffffffffffffffff169050816000806101000a81548173ffffffffffffffffffffffffffffffffffffffff021916908373ffffffffffffffffffffffffffffffffffffffff1602179055508173ffffffffffffffffffffffffffffffffffffffff168173ffffffffffffffffffffffffffffffffffffffff167f8be0079c531659141344cd1fd0a4f28419497f9722a3daafe3b4186f6b6457e060405160405180910390a35050565b600080fd5b600073ffffffffffffffffffffffffffffffffffffffff82169050919050565b6000620002628262000235565b9050919050565b620002748162000255565b81146200028057600080fd5b50565b600081519050620002948162000269565b92915050565b600060208284031215620002b357620002b262000230565b5b6000620002c38482850162000283565b91505092915050565b620002d78162000255565b82525050565b6000602082019050620002f46000830184620002cc565b92915050565b600082825260208201905092915050565b7f61646472657373207a65726f2100000000000000000000000000000000000000600082015250565b600062000343600d83620002fa565b915062000350826200030b565b602082019050919050565b60006020820190508181036000830152620003768162000334565b9050919050565b608051611a58620003c3600039600081816104020152818161051501528181610768015281816108b901528181610a4101528181610bd60152610d0c0152611a586000f3fe608060405234801561001057600080fd5b50600436106100ea5760003560e01c80638da5cb5b1161008c578063f2fde38b11610066578063f2fde38b146101ff578063f301af421461021b578063fc0c546a1461024d578063fc7e286d1461026b576100ea565b80638da5cb5b146101a7578063a693600b146101c5578063beceed39146101e3576100ea565b80636f7267b7116100c85780636f7267b714610131578063715018a614610161578063869890381461016b5780638699a65f14610189576100ea565b80633ccfd60b146100ef57806351c6590a146100f9578063648bf77414610115575b600080fd5b6100f761029d565b005b610113600480360381019061010e9190611242565b610483565b005b61012f600480360381019061012a91906112cd565b6107e9565b005b61014b60048036038101906101469190611242565b610902565b604051610158919061131c565b60405180910390f35b6101696109e8565b005b6101736109fc565b604051610180919061131c565b60405180910390f35b610191610a02565b60405161019e919061131c565b60405180910390f35b6101af610a08565b6040516101bc9190611346565b60405180910390f35b6101cd610a31565b6040516101da919061131c565b60405180910390f35b6101fd60048036038101906101f89190611242565b610a37565b005b61021960048036038101906102149190611361565b610c5a565b005b61023560048036038101906102309190611242565b610ce0565b6040516102449392919061138e565b60405180910390f35b610255610d0a565b6040516102629190611424565b60405180910390f35b61028560048036038101906102809190611361565b610d2e565b6040516102949392919061145a565b60405180910390f35b6000600460003373ffffffffffffffffffffffffffffffffffffffff1673ffffffffffffffffffffffffffffffffffffffff16815260200190815260200160002060000154905060008111610327576040517f08c379a000000000000000000000000000000000000000000000000000000000815260040161031e906114ee565b60405180910390fd5b600061033282610902565b8261033d919061153d565b905081600260008282546103519190611571565b925050819055506000600460003373ffffffffffffffffffffffffffffffffffffffff1673ffffffffffffffffffffffffffffffffffffffff16815260200190815260200160002060020160006101000a81548160ff0219169083151502179055506000600460003373ffffffffffffffffffffffffffffffffffffffff1673ffffffffffffffffffffffffffffffffffffffff1681526020019081526020016000206000018190555061044633827f000000000000000000000000000000000000000000000000000000000000000073ffffffffffffffffffffffffffffffffffffffff16610d659092919063ffffffff16565b7f4ce7033d118120e254016dccf195288400b28fc8936425acd5f17ce2df3ab70833826040516104779291906115a5565b60405180910390a15050565b600460003373ffffffffffffffffffffffffffffffffffffffff1673ffffffffffffffffffffffffffffffffffffffff16815260200190815260200160002060020160009054906101000a900460ff1615610513576040517f08c379a000000000000000000000000000000000000000000000000000000000815260040161050a9061161a565b60405180910390fd5b7f000000000000000000000000000000000000000000000000000000000000000073ffffffffffffffffffffffffffffffffffffffff166370a08231336040518263ffffffff1660e01b815260040161056c9190611346565b602060405180830381865afa158015610589573d6000803e3d6000fd5b505050506040513d601f19601f820116820180604052508101906105ad919061164f565b8111156105ef576040517f08c379a00000000000000000000000000000000000000000000000000000000081526004016105e6906116c8565b60405180910390fd5b60008111610632576040517f08c379a000000000000000000000000000000000000000000000000000000000815260040161062990611734565b60405180910390fd5b80600460003373ffffffffffffffffffffffffffffffffffffffff1673ffffffffffffffffffffffffffffffffffffffff1681526020019081526020016000206000016000828254610684919061153d565b92505081905550600154600460003373ffffffffffffffffffffffffffffffffffffffff1673ffffffffffffffffffffffffffffffffffffffff168152602001908152602001600020600101819055506001600460003373ffffffffffffffffffffffffffffffffffffffff1673ffffffffffffffffffffffffffffffffffffffff16815260200190815260200160002060020160006101000a81548160ff0219169083151502179055506003600081548092919061074290611754565b91905055508060026000828254610759919061153d565b925050819055506107ad3330837f000000000000000000000000000000000000000000000000000000000000000073ffffffffffffffffffffffffffffffffffffffff16610de4909392919063ffffffff16565b7fad4fd741e7906d7acd3d570687964453a56935f0a175e84e9376910b70f9e44433826040516107de9291906115a5565b60405180910390a150565b6107f1610e66565b60008173ffffffffffffffffffffffffffffffffffffffff166370a08231306040518263ffffffff1660e01b815260040161082c9190611346565b602060405180830381865afa158015610849573d6000803e3d6000fd5b505050506040513d601f19601f8201168201806040525081019061086d919061164f565b9050600081116108b2576040517f08c379a00000000000000000000000000000000000000000000000000000000081526004016108a9906117e8565b60405180910390fd5b6108fd83827f000000000000000000000000000000000000000000000000000000000000000073ffffffffffffffffffffffffffffffffffffffff16610d659092919063ffffffff16565b505050565b600080600460003373ffffffffffffffffffffffffffffffffffffffff1673ffffffffffffffffffffffffffffffffffffffff168152602001908152602001600020600101549050600060015490505b818111156109e15760006005600060018461096d9190611571565b81526020019081526020016000206002015490506000600560006001856109949190611571565b81526020019081526020016000206000015490508181876109b59190611808565b6109bf9190611879565b856109ca919061153d565b9450505080806109d9906118aa565b915050610952565b5050919050565b6109f0610e66565b6109fa6000610eed565b565b60035481565b60015481565b60008060009054906101000a900473ffffffffffffffffffffffffffffffffffffffff16905090565b60025481565b610a3f610e66565b7f000000000000000000000000000000000000000000000000000000000000000073ffffffffffffffffffffffffffffffffffffffff166370a08231336040518263ffffffff1660e01b8152600401610a989190611346565b602060405180830381865afa158015610ab5573d6000803e3d6000fd5b505050506040513d601f19601f82011682018060405250810190610ad9919061164f565b811115610b1b576040517f08c379a0000000000000000000000000000000000000000000000000000000008152600401610b12906116c8565b60405180910390fd5b60008111610b5e576040517f08c379a0000000000000000000000000000000000000000000000000000000008152600401610b5590611734565b60405180910390fd5b600060016000815480929190610b7390611754565b91905055905081600560008381526020019081526020016000206000018190555060035460056000838152602001908152602001600020600101819055506002546005600083815260200190815260200160002060020181905550610c1b3330847f000000000000000000000000000000000000000000000000000000000000000073ffffffffffffffffffffffffffffffffffffffff16610de4909392919063ffffffff16565b7ff1de5d43652fd53fb58be64a954b24b989afb28cf7221934255efbc6b7f4b28b338284604051610c4e939291906118d3565b60405180910390a15050565b610c62610e66565b600073ffffffffffffffffffffffffffffffffffffffff168173ffffffffffffffffffffffffffffffffffffffff1603610cd45760006040517f1e4fbdf7000000000000000000000000000000000000000000000000000000008152600401610ccb9190611346565b60405180910390fd5b610cdd81610eed565b50565b60056020528060005260406000206000915090508060000154908060010154908060020154905083565b7f000000000000000000000000000000000000000000000000000000000000000081565b60046020528060005260406000206000915090508060000154908060010154908060020160009054906101000a900460ff16905083565b610ddf838473ffffffffffffffffffffffffffffffffffffffff1663a9059cbb8585604051602401610d989291906115a5565b604051602081830303815290604052915060e01b6020820180517bffffffffffffffffffffffffffffffffffffffffffffffffffffffff8381831617835250505050610fb1565b505050565b610e60848573ffffffffffffffffffffffffffffffffffffffff166323b872dd868686604051602401610e199392919061190a565b604051602081830303815290604052915060e01b6020820180517bffffffffffffffffffffffffffffffffffffffffffffffffffffffff8381831617835250505050610fb1565b50505050565b610e6e611048565b73ffffffffffffffffffffffffffffffffffffffff16610e8c610a08565b73ffffffffffffffffffffffffffffffffffffffff1614610eeb57610eaf611048565b6040517f118cdaa7000000000000000000000000000000000000000000000000000000008152600401610ee29190611346565b60405180910390fd5b565b60008060009054906101000a900473ffffffffffffffffffffffffffffffffffffffff169050816000806101000a81548173ffffffffffffffffffffffffffffffffffffffff021916908373ffffffffffffffffffffffffffffffffffffffff1602179055508173ffffffffffffffffffffffffffffffffffffffff168173ffffffffffffffffffffffffffffffffffffffff167f8be0079c531659141344cd1fd0a4f28419497f9722a3daafe3b4186f6b6457e060405160405180910390a35050565b6000610fdc828473ffffffffffffffffffffffffffffffffffffffff1661105090919063ffffffff16565b90506000815114158015611001575080806020019051810190610fff919061196d565b155b1561104357826040517f5274afe700000000000000000000000000000000000000000000000000000000815260040161103a9190611346565b60405180910390fd5b505050565b600033905090565b606061105e83836000611066565b905092915050565b6060814710156110ad57306040517fcd7860590000000000000000000000000000000000000000000000000000000081526004016110a49190611346565b60405180910390fd5b6000808573ffffffffffffffffffffffffffffffffffffffff1684866040516110d69190611a0b565b60006040518083038185875af1925050503d8060008114611113576040519150601f19603f3d011682016040523d82523d6000602084013e611118565b606091505b5091509150611128868383611133565b925050509392505050565b60608261114857611143826111c2565b6111ba565b60008251148015611170575060008473ffffffffffffffffffffffffffffffffffffffff163b145b156111b257836040517f9996b3150000000000000000000000000000000000000000000000000000000081526004016111a99190611346565b60405180910390fd5b8190506111bb565b5b9392505050565b6000815111156111d55780518082602001fd5b6040517f1425ea4200000000000000000000000000000000000000000000000000000000815260040160405180910390fd5b600080fd5b6000819050919050565b61121f8161120c565b811461122a57600080fd5b50565b60008135905061123c81611216565b92915050565b60006020828403121561125857611257611207565b5b60006112668482850161122d565b91505092915050565b600073ffffffffffffffffffffffffffffffffffffffff82169050919050565b600061129a8261126f565b9050919050565b6112aa8161128f565b81146112b557600080fd5b50565b6000813590506112c7816112a1565b92915050565b600080604083850312156112e4576112e3611207565b5b60006112f2858286016112b8565b9250506020611303858286016112b8565b9150509250929050565b6113168161120c565b82525050565b6000602082019050611331600083018461130d565b92915050565b6113408161128f565b82525050565b600060208201905061135b6000830184611337565b92915050565b60006020828403121561137757611376611207565b5b6000611385848285016112b8565b91505092915050565b60006060820190506113a3600083018661130d565b6113b0602083018561130d565b6113bd604083018461130d565b949350505050565b6000819050919050565b60006113ea6113e56113e08461126f565b6113c5565b61126f565b9050919050565b60006113fc826113cf565b9050919050565b600061140e826113f1565b9050919050565b61141e81611403565b82525050565b60006020820190506114396000830184611415565b92915050565b60008115159050919050565b6114548161143f565b82525050565b600060608201905061146f600083018661130d565b61147c602083018561130d565b611489604083018461144b565b949350505050565b600082825260208201905092915050565b7f62616c616e636520657175616c73207a65726f00000000000000000000000000600082015250565b60006114d8601383611491565b91506114e3826114a2565b602082019050919050565b60006020820190508181036000830152611507816114cb565b9050919050565b7f4e487b7100000000000000000000000000000000000000000000000000000000600052601160045260246000fd5b60006115488261120c565b91506115538361120c565b925082820190508082111561156b5761156a61150e565b5b92915050565b600061157c8261120c565b91506115878361120c565b925082820390508181111561159f5761159e61150e565b5b92915050565b60006040820190506115ba6000830185611337565b6115c7602083018461130d565b9392505050565b7f416c7265616479207374616b6564210000000000000000000000000000000000600082015250565b6000611604600f83611491565b915061160f826115ce565b602082019050919050565b60006020820190508181036000830152611633816115f7565b9050919050565b60008151905061164981611216565b92915050565b60006020828403121561166557611664611207565b5b60006116738482850161163a565b91505092915050565b7f6e6f7420656e6f7567682062616c616e63650000000000000000000000000000600082015250565b60006116b2601283611491565b91506116bd8261167c565b602082019050919050565b600060208201905081810360008301526116e1816116a5565b9050919050565b7f616d6f756e7420657175616c73207a65726f0000000000000000000000000000600082015250565b600061171e601283611491565b9150611729826116e8565b602082019050919050565b6000602082019050818103600083015261174d81611711565b9050919050565b600061175f8261120c565b91507fffffffffffffffffffffffffffffffffffffffffffffffffffffffffffffffff82036117915761179061150e565b5b600182019050919050565b7f46756e6473206e6f7420617661696c61626c6521000000000000000000000000600082015250565b60006117d2601483611491565b91506117dd8261179c565b602082019050919050565b60006020820190508181036000830152611801816117c5565b9050919050565b60006118138261120c565b915061181e8361120c565b925082820261182c8161120c565b915082820484148315176118435761184261150e565b5b5092915050565b7f4e487b7100000000000000000000000000000000000000000000000000000000600052601260045260246000fd5b60006118848261120c565b915061188f8361120c565b92508261189f5761189e61184a565b5b828204905092915050565b60006118b58261120c565b9150600082036118c8576118c761150e565b5b600182039050919050565b60006060820190506118e86000830186611337565b6118f5602083018561130d565b611902604083018461130d565b949350505050565b600060608201905061191f6000830186611337565b61192c6020830185611337565b611939604083018461130d565b949350505050565b61194a8161143f565b811461195557600080fd5b50565b60008151905061196781611941565b92915050565b60006020828403121561198357611982611207565b5b600061199184828501611958565b91505092915050565b600081519050919050565b600081905092915050565b60005b838110156119ce5780820151818401526020810190506119b3565b60008484015250505050565b60006119e58261199a565b6119ef81856119a5565b93506119ff8185602086016119b0565b80840191505092915050565b6000611a1782846119da565b91508190509291505056fea26469706673582212202bbf1b98e306e2668bdf0f92332eeafc34fdf6d516cdb33e5592cf8f6a6eba4564736f6c63430008180033",
  "linkReferences": {},
  "deployedLinkReferences": {}
}